1011234567899876543212504050024A094101SENDER BANK            RECEIVER BANK          0000001
5200COMPANY NAME    PAYROLL             1234567890PPD250405250405   11234567890000001
627021000021488214947        0000762673000001         Andrea Hamilton         00000001 
627021000021862520325        0000099752000002         James Fields            00000001 
627021000021679287642        0000841653000003         Karla Williams          00000001 
627021000021431034213        0000412921000004         Carrie Murphy           00000001 
627021000021487552200        0000602561000005         Jennifer Robinson       00000001 
627021000021642409846        0000512797000006         Ann Mccall              00000001 
627021000021807327981        0000865379000007         Toni Pearson            00000001 
627021000021774605418        0000486152000008         Donald Fowler           00000001 
627021000021515902697        0000809534000009         Brandi Dixon            00000001 
627021000021726304726        0000980406000010         Donna Roberts           00000001 
627021000021419625598        0000983362000011         Scott Young             00000001 
627021000021916870045        0000740270000012         Kathleen Gentry         00000001 
627021000021984788609        0000783904000013         Mark Saunders           00000001 
627021000021613509067        0000373491000014         Meagan Nielsen          00000001 
627021000021978045581        0000708101000015         Caroline Jimenez        00000001 
627021000021122919524        0000132870000016         Justin Mcpherson        00000001 
627021000021571203614        0000922051000017         Matthew Gallagher       00000001 
627021000021778280785        0000499954000018         Tracey Weber            00000001 
627021000021772179623        0000380125000019         Lindsay Walton          00000001 
627021000021536621173        0000257427000020         Alexis Lee              00000001 
627021000021773234542        0000526150000021         Mathew Huynh            00000001 
627021000021564076947        0000050897000022         Toni Barnett            00000001 
627021000021603319535        0000244246000023         Martin Harris           00000001 
627021000021402053653        0000677808000024         Christopher Shaw        00000001 
627021000021820324990        0000418028000025         Kayla Young             00000001 
627021000021723583310        0000100045000026         Joan Williams           00000001 
627021000021639762326        0000156692000027         Peter Armstrong         00000001 
627021000021825350984        0000076697000028         Patricia Jackson        00000001 
627021000021161875539        0000453893000029         Patricia Williams       00000001 
627021000021144784366        0000881203000030         Tiffany Lee             00000001 
627021000021443802116        0000106850000031         Frank Craig             00000001 
627021000021127978936        0000905678000032         Ruth Reynolds           00000001 
627021000021957272979        0000341594000033         Lindsay Alvarez         00000001 
627021000021767966205        0000950287000034         Nicole Cox              00000001 
627021000021256408413        0000209954000035         Frederick Hicks         00000001 
627021000021161302289        0000501312000036         Jamie Clayton           00000001 
627021000021474924238        0000965391000037         David Jenkins           00000001 
627021000021977700698        0000047177000038         Alicia Burton           00000001 
627021000021633751082        0000827802000039         David Foster            00000001 
627021000021636730686        0000271637000040         Katherine Hawkins       00000001 
627021000021521229005        0000767638000041         Gerald Lee              00000001 
627021000021542935163        0000722198000042         Lisa Payne              00000001 
627021000021576810536        0000420670000043         Stacey Martinez         00000001 
627021000021760289912        0000211469000044         Jonathan English        00000001 
627021000021717396572        0000627739000045         Daniel Fischer          00000001 
627021000021978958622        0000623568000046         Jordan Craig            00000001 
627021000021386212860        0000139567000047         Jason Hernandez         00000001 
627021000021128623592        0000959332000048         Caitlyn Marks           00000001 
627021000021586531924        0000404542000049         April French            00000001 
627021000021556008853        0000001642000050         Stuart Johnson          00000001 
627021000021269259926        0000828262000051         Joseph Smith            00000001 
627021000021529525391        0000692428000052         Bryan Stewart           00000001 
627021000021712138263        0000648745000053         Matthew Stephens        00000001 
627021000021204554304        0000872018000054         Angel Singleton         00000001 
627021000021470098746        0000116142000055         Joseph Collins          00000001 
627021000021795248713        0000537979000056         Melissa Turner          00000001 
627021000021855136300        0000708941000057         Brittney Davidson       00000001 
627021000021777382892        0000738136000058         Karen Thomas            00000001 
627021000021594793223        0000210811000059         Alec Lopez              00000001 
627021000021302447019        0000359485000060         Samantha Rodriguez      00000001 
627021000021893393390        0000493999000061         Willie Bradley          00000001 
627021000021915236139        0000269798000062         Mrs. Tracy Porter       00000001 
627021000021324543480        0000466379000063         Johnny Brown            00000001 
627021000021568230829        0000154802000064         Samuel Mitchell         00000001 
627021000021708506878        0000733799000065         John Obrien             00000001 
627021000021714123526        0000310633000066         James Osborne           00000001 
627021000021559486650        0000533177000067         Benjamin Little         00000001 
627021000021817405040        0000107906000068         Anthony Reese           00000001 
627021000021403929669        0000046434000069         Lauren Adams            00000001 
627021000021851632234        0000218955000070         Nancy Gibson            00000001 
627021000021440491900        0000915557000071         Roy Davis               00000001 
627021000021613805920        0000843558000072         Tim Lewis               00000001 
627021000021870700998        0000069434000073         Jennifer Palmer         00000001 
627021000021804496993        0000429805000074         Michael Rodriguez DDS   00000001 
627021000021601379164        0000759504000075         Jillian Page            00000001 
627021000021294457129        0000730426000076         Charles Anderson        00000001 
627021000021344999030        0000496781000077         Christopher Hensley     00000001 
627021000021539216544        0000876921000078         Eric Pineda             00000001 
627021000021307559278        0000360735000079         Kevin Maynard           00000001 
627021000021638672549        0000691989000080         Catherine Arias         00000001 
627021000021364138500        0000643977000081         Emily Hoffman           00000001 
627021000021752583723        0000773668000082         Christopher Singh       00000001 
627021000021629112566        0000172262000083         Jason Warren            00000001 
627021000021647921806        0000193394000084         Amanda Hernandez        00000001 
627021000021403990551        0000072509000085         Bruce Gamble            00000001 
627021000021638099256        0000452358000086         Casey Adams             00000001 
627021000021436535458        0000797663000087         Timothy Jimenez         00000001 
627021000021891807123        0000847275000088         Valerie Blake           00000001 
627021000021641435980        0000771836000089         Robert Scott            00000001 
627021000021670770565        0000391521000090         Michael Howell          00000001 
627021000021637719156        0000412377000091         Antonio Hodges          00000001 
627021000021410100704        0000545101000092         Matthew Baird           00000001 
627021000021520512092        0000915842000093         Tiffany Evans           00000001 
627021000021127437944        0000263298000094         Elizabeth Bell          00000001 
627021000021352752157        0000140916000095         Kenneth Brown           00000001 
627021000021278586365        0000862359000096         Dr. Richard Smith DVM   00000001 
627021000021961169193        0000272576000097         Peter Robles            00000001 
627021000021464428110        0000694549000098         Christopher Price       00000001 
627021000021173597467        0000080778000099         Michael Jones           00000001 
627021000021151492048        0000858743000100         Erin Thompson           00000001 
627021000021458304394        0000719274000101         Christopher Gamble      00000001 
627021000021928218122        0000718592000102         Annette Valdez          00000001 
627021000021243375555        0000822639000103         Alicia Chavez           00000001 
627021000021432848361        0000206488000104         Leslie Henry            00000001 
627021000021988409201        0000618425000105         Autumn Reed             00000001 
627021000021715321791        0000494295000106         David Randall           00000001 
627021000021369288622        0000586252000107         Whitney Jones           00000001 
627021000021380896063        0000151714000108         Miguel Jackson          00000001 
627021000021830825962        0000061133000109         Timothy Ball            00000001 
627021000021132151369        0000892556000110         David Chandler          00000001 
627021000021973161650        0000628267000111         Sarah Ramsey            00000001 
627021000021153674759        0000961735000112         Breanna Ortega          00000001 
627021000021899378864        0000784863000113         Teresa Johnson          00000001 
627021000021191262365        0000528321000114         Joshua Ward             00000001 
627021000021671751397        0000494971000115         Luke Pena               00000001 
627021000021309495926        0000474514000116         Brittany Patrick        00000001 
627021000021119732077        0000567816000117         Dustin Thompson         00000001 
627021000021532968434        0000828562000118         Krista Fletcher         00000001 
627021000021203105549        0000204018000119         Daniel Robinson         00000001 
627021000021348259507        0000839537000120         Jeffrey Herrera         00000001 
627021000021866527432        0000071179000121         Peggy Thomas            00000001 
627021000021920520275        0000572592000122         Tracey Johnson          00000001 
627021000021511883539        0000688467000123         Donald Martinez         00000001 
627021000021586622943        0000253791000124         Joel Walker             00000001 
627021000021221948014        0000232711000125         Gary Jackson            00000001 
627021000021363700957        0000758335000126         John Smith DDS          00000001 
627021000021385888952        0000856227000127         Jacqueline Harding      00000001 
627021000021121601951        0000926337000128         Frank Christian         00000001 
627021000021347561379        0000962481000129         Lori Wilcox             00000001 
627021000021719692073        0000942551000130         Darius Griffin          00000001 
627021000021613405187        0000295016000131         Jason Boone             00000001 
627021000021867446641        0000189574000132         Paige Fisher            00000001 
627021000021178129636        0000220471000133         Jennifer Parker         00000001 
627021000021836368365        0000507645000134         Gary Bailey             00000001 
627021000021549872294        0000591865000135         Diana Contreras         00000001 
627021000021535599326        0000119879000136         Christopher Hart        00000001 
627021000021548185105        0000888092000137         Jessica Salinas         00000001 
627021000021287605687        0000623660000138         Danielle Campbell       00000001 
627021000021288307260        0000937217000139         Michelle Brock          00000001 
627021000021242169751        0000343112000140         Christopher Farley      00000001 
627021000021414509451        0000126484000141         Christine Smith         00000001 
627021000021922960097        0000284568000142         Jermaine Gomez          00000001 
627021000021287868495        0000144425000143         Rebecca Carter          00000001 
627021000021220782690        0000434185000144         Dr. Nicole Reed         00000001 
627021000021769724766        0000077114000145         Tiffany Guerrero        00000001 
627021000021397819596        0000622796000146         Brian Torres            00000001 
627021000021548875415        0000700950000147         Jose Gonzalez           00000001 
627021000021850482928        0000980787000148         Brian Hudson            00000001 
627021000021170265766        0000002324000149         Maria Williams          00000001 
627021000021341468124        0000716497000150         Adam Contreras          00000001 
627021000021747533062        0000837606000151         Caitlyn Cole            00000001 
627021000021776281796        0000097356000152         Casey Santiago          00000001 
627021000021224399430        0000339329000153         Katherine Wong          00000001 
627021000021240913762        0000420145000154         Michele Cole            00000001 
627021000021123701730        0000946862000155         Melissa Ramos           00000001 
627021000021189979899        0000244338000156         Donald Mccoy            00000001 
627021000021853803938        0000177389000157         Samantha Ruiz           00000001 
627021000021893603548        0000437372000158         Susan Frazier           00000001 
627021000021568904749        0000194092000159         Lindsay Hunter          00000001 
627021000021865781273        0000668675000160         Jennifer Barnes         00000001 
627021000021256573112        0000514993000161         Maxwell Ramirez         00000001 
627021000021124478701        0000457618000162         Brandon Ballard         00000001 
627021000021916573298        0000888371000163         Gregory Schneider       00000001 
627021000021174044217        0000812129000164         Richard Lawrence        00000001 
627021000021335906708        0000704373000165         David Stevens           00000001 
627021000021235692745        0000845229000166         Nathaniel Greene        00000001 
627021000021674702832        0000397951000167         Melissa Scott           00000001 
627021000021655731211        0000501542000168         James Mendoza           00000001 
627021000021617798755        0000670878000169         Amber Lee               00000001 
627021000021599761615        0000572405000170         Kyle Webster            00000001 
627021000021949475510        0000083521000171         Adam Mejia              00000001 
627021000021877186185        0000401208000172         Stacey Martinez         00000001 
627021000021520080566        0000734931000173         Aaron Miller            00000001 
627021000021301962630        0000953129000174         Tiffany Barnett         00000001 
627021000021445871593        0000634953000175         Katelyn Watts           00000001 
627021000021309955804        0000208334000176         Leonard Garcia          00000001 
627021000021181916227        0000421953000177         Sonya Chen              00000001 
627021000021991541889        0000056358000178         Rebecca Navarro MD      00000001 
627021000021674033768        0000680330000179         Charles Garner          00000001 
627021000021444354803        0000005393000180         John Stephens           00000001 
627021000021497561400        0000088536000181         Corey Johnson           00000001 
627021000021703314039        0000749984000182         James Everett           00000001 
627021000021748004075        0000752425000183         Michael Guerrero        00000001 
627021000021703496941        0000525053000184         Raymond Taylor          00000001 
627021000021351546451        0000617990000185         Joshua Barron           00000001 
627021000021793163269        0000942548000186         Clifford Martin         00000001 
627021000021995632144        0000571425000187         Dorothy Payne           00000001 
627021000021872147639        0000267458000188         Michael Harris          00000001 
627021000021665952175        0000387562000189         Anthony Bennett         00000001 
627021000021242900512        0000890286000190         Ashley Fitzgerald       00000001 
627021000021547580084        0000123802000191         Renee Brown             00000001 
627021000021671143319        0000862026000192         Brian Burton            00000001 
627021000021923722617        0000887279000193         Jessica Velazquez       00000001 
627021000021148735788        0000611824000194         Alexandra Navarro       00000001 
627021000021247071014        0000443785000195         Sandra Daniel           00000001 
627021000021942006611        0000180123000196         Andrew Bishop           00000001 
627021000021568342300        0000016486000197         Robert Woods            00000001 
627021000021144255913        0000352980000198         David Vasquez           00000001 
627021000021981457397        0000075336000199         Joseph Shaw             00000001 
627021000021484047769        0000476125000200         William Bradshaw        00000001 
627021000021878619909        0000244229000201         Thomas Webster          00000001 
627021000021167065084        0000786698000202         Sara Zhang              00000001 
627021000021473025782        0000490255000203         Diane Marsh             00000001 
627021000021422711506        0000650610000204         Joseph Wright           00000001 
627021000021286793630        0000030627000205         Jacqueline Frey         00000001 
627021000021236664306        0000536314000206         Joseph Cox              00000001 
627021000021701097568        0000776789000207         Tiffany Mendoza         00000001 
627021000021948001861        0000101022000208         Wendy Gray              00000001 
627021000021607106940        0000380393000209         Bradley Johnson         00000001 
627021000021280658363        0000709099000210         George Norton           00000001 
627021000021738313259        0000947660000211         Jeffrey Rich            00000001 
627021000021870752079        0000292054000212         Patricia Mccann         00000001 
627021000021179896817        0000672101000213         Patricia Gibson         00000001 
627021000021109910337        0000213125000214         Patricia Stewart        00000001 
627021000021301344988        0000011594000215         Lawrence Mccarthy       00000001 
627021000021313537734        0000309732000216         Angel Diaz              00000001 
627021000021810121752        0000027848000217         Jeremy Harris           00000001 
627021000021813883404        0000998398000218         Michelle Cruz           00000001 
627021000021192295259        0000124752000219         Joseph Anderson         00000001 
627021000021906490233        0000573289000220         Amy Huerta              00000001 
627021000021682644544        0000932703000221         Jenna Byrd              00000001 
627021000021262305010        0000757719000222         Kathleen Smith          00000001 
627021000021170059023        0000536810000223         Lauren May              00000001 
627021000021105063701        0000045027000224         Kathryn Mahoney         00000001 
627021000021894408511        0000276964000225         Melanie Stout           00000001 
627021000021122407932        0000940318000226         Teresa Johnson          00000001 
627021000021418177039        0000783625000227         Ethan Stokes            00000001 
627021000021644865323        0000318317000228         Mary Nelson             00000001 
627021000021737566191        0000098816000229         Jamie Smith             00000001 
627021000021945317685        0000831095000230         Chase Peterson          00000001 
627021000021808873680        0000622050000231         Alex Wolfe              00000001 
627021000021520029959        0000933700000232         Sarah Baker             00000001 
627021000021130624783        0000724734000233         Jessica Banks           00000001 
627021000021178184129        0000445513000234         Jeffrey Stevens         00000001 
627021000021682840938        0000659158000235         Timothy Wilson          00000001 
627021000021818376421        0000338797000236         Nicole Miller           00000001 
627021000021721910560        0000789555000237         Christopher Solomon     00000001 
627021000021182638540        0000281117000238         Christopher Henry       00000001 
627021000021467645242        0000155001000239         James Crawford          00000001 
627021000021466528505        0000615470000240         Frederick Collins       00000001 
627021000021554124109        0000845916000241         Jamie Martinez          00000001 
627021000021770403961        0000709793000242         Dawn Sharp              00000001 
627021000021382030531        0000021106000243         Kimberly Park           00000001 
627021000021530171913        0000649950000244         Charles Ortiz           00000001 
627021000021245505605        0000259464000245         Ryan Morgan             00000001 
627021000021539633154        0000839712000246         Susan Johnson           00000001 
627021000021547448031        0000691419000247         Christopher Massey      00000001 
627021000021513998134        0000526834000248         Carrie Pugh             00000001 
627021000021904147331        0000080724000249         Randy Cunningham        00000001 
627021000021111785916        0000441680000250         Thomas Hamilton MD      00000001 
627021000021993646373        0000181400000251         Mr. David Murphy PhD    00000001 
627021000021532660706        0000936390000252         Jaime Bass              00000001 
627021000021412402633        0000301135000253         Michelle Gonzalez       00000001 
627021000021583927173        0000639497000254         David Smith             00000001 
627021000021301846683        0000551511000255         Kayla Johnson           00000001 
627021000021705249615        0000524800000256         Jennifer Hoffman        00000001 
627021000021546983101        0000124295000257         Melinda Henderson       00000001 
627021000021104619768        0000279021000258         Seth Patterson          00000001 
627021000021531736932        0000576863000259         Ronald House            00000001 
627021000021810847725        0000318333000260         Jason Jones             00000001 
627021000021848189696        0000244994000261         Samuel Webb             00000001 
627021000021219570832        0000684429000262         Mark Kramer             00000001 
627021000021925762410        0000728032000263         Gary Melendez           00000001 
627021000021769233818        0000611397000264         Dominic Knight          00000001 
627021000021358246254        0000351381000265         Mrs. Margaret Morton    00000001 
627021000021534693587        0000525099000266         Eric Haney              00000001 
627021000021704346037        0000398733000267         Denise Evans            00000001 
627021000021622007910        0000613212000268         Leslie Marshall         00000001 
627021000021711765271        0000457095000269         Janet Taylor            00000001 
627021000021548725770        0000766788000270         Amy Taylor              00000001 
627021000021830448569        0000909476000271         Steven Bradley          00000001 
627021000021258620708        0000410035000272         Mr. Chad Ramirez        00000001 
627021000021312944636        0000244319000273         Ryan Simmons            00000001 
627021000021843555669        0000218561000274         Terry Walter II         00000001 
627021000021148304124        0000556510000275         Katrina Stevenson       00000001 
627021000021289428073        0000653807000276         Molly Bell              00000001 
627021000021462572159        0000621357000277         Lacey Gutierrez         00000001 
627021000021743390129        0000809589000278         Corey Thomas            00000001 
627021000021962217893        0000526287000279         Brittany Rice           00000001 
627021000021468583781        0000710243000280         Mr. Robert Williams     00000001 
627021000021959409941        0000727545000281         Holly Gonzalez          00000001 
627021000021785223029        0000275944000282         Samuel Williams         00000001 
627021000021536192876        0000177247000283         Kristin Compton         00000001 
627021000021630309180        0000201756000284         Larry Gilmore           00000001 
627021000021899326084        0000063970000285         Ashley Bowers           00000001 
627021000021146970660        0000015219000286         Elizabeth Jacobs        00000001 
627021000021741726975        0000836162000287         Nancy Ward              00000001 
627021000021487668636        0000570408000288         Diana Kelley            00000001 
627021000021994320778        0000618478000289         Melinda Harrison        00000001 
627021000021370458121        0000964724000290         Shawn Smith             00000001 
627021000021957453638        0000579386000291         Yolanda Pearson         00000001 
627021000021437188785        0000463860000292         Mark Sanchez            00000001 
627021000021649039966        0000707962000293         Rebecca Rivas           00000001 
627021000021735003774        0000196678000294         Sheila Harris           00000001 
627021000021443657513        0000492024000295         Caleb Perez             00000001 
627021000021284368103        0000125757000296         Jennifer Roberson       00000001 
627021000021542626700        0000857793000297         Tony Curtis             00000001 
627021000021358886735        0000489821000298         Janet Gutierrez         00000001 
627021000021622928994        0000444227000299         Herbert Johnson DDS     00000001 
627021000021582753485        0000410974000300         Sophia Taylor           00000001 
627021000021321921187        0000082138000301         Christine Gross         00000001 
627021000021344692790        0000195165000302         Claudia Ward            00000001 
627021000021276144820        0000896756000303         Justin Smith            00000001 
627021000021792795537        0000130096000304         Erica Tucker            00000001 
627021000021382478611        0000815283000305         Robert Morris           00000001 
627021000021750457512        0000388900000306         Stephen May             00000001 
627021000021352572602        0000845399000307         Gary Rivera             00000001 
627021000021929945721        0000936926000308         Michelle Bishop         00000001 
627021000021788258911        0000410579000309         James Young             00000001 
627021000021836996518        0000430953000310         Timothy Calhoun         00000001 
627021000021475742285        0000768119000311         Edward Dean             00000001 
627021000021682915140        0000924587000312         Terri Garcia            00000001 
627021000021164554000        0000525712000313         Natalie Arnold          00000001 
627021000021874214051        0000054446000314         Shannon Anderson        00000001 
627021000021487751460        0000652323000315         Charles Franklin        00000001 
627021000021154258355        0000694599000316         Terri Pierce            00000001 
627021000021217528809        0000239867000317         Casey Diaz              00000001 
627021000021560432246        0000288731000318         Diamond Smith           00000001 
627021000021280234875        0000169635000319         Crystal Phillips        00000001 
627021000021426698049        0000509522000320         Mark Johnson            00000001 
627021000021904815396        0000704871000321         Amy Sanchez MD          00000001 
627021000021464215444        0000717842000322         William Hill            00000001 
627021000021484226973        0000630540000323         Jennifer Weaver         00000001 
627021000021947044376        0000098635000324         Travis Burke            00000001 
627021000021499819168        0000089527000325         Timothy Juarez          00000001 
627021000021370572304        0000737543000326         Anna Nguyen             00000001 
627021000021856611587        0000837895000327         Ernest Bishop           00000001 
627021000021235076892        0000803073000328         Jennifer Mendoza        00000001 
627021000021168672806        0000222960000329         Samuel Stokes           00000001 
627021000021972960711        0000971533000330         Brenda Walters          00000001 
627021000021652817308        0000983751000331         Steven Cohen            00000001 
627021000021917973615        0000120910000332         Jacqueline Page         00000001 
627021000021499545197        0000967718000333         Steven Baker            00000001 
627021000021316855814        0000753907000334         Natalie Pierce          00000001 
627021000021789908966        0000702939000335         Dennis Li               00000001 
627021000021501777701        0000719369000336         Sonya Mcgrath           00000001 
627021000021816128805        0000167261000337         Barbara Walker          00000001 
627021000021825700650        0000050235000338         Curtis Wright           00000001 
627021000021437586718        0000210339000339         Mariah Rodriguez        00000001 
627021000021102618407        0000004404000340         Christian Downs         00000001 
627021000021422894376        0000303453000341         Beth Smith              00000001 
627021000021551342933        0000329521000342         Joann Williams          00000001 
627021000021396829714        0000202221000343         Scott Keith             00000001 
627021000021409015980        0000454730000344         Sara Jackson            00000001 
627021000021512449705        0000069851000345         Brenda Davis            00000001 
627021000021999706691        0000848971000346         Brenda Jones            00000001 
627021000021822743588        0000359641000347         Keith Mcintyre          00000001 
627021000021333413017        0000538004000348         Christopher Sellers     00000001 
627021000021523127039        0000658584000349         Gregory Mueller         00000001 
627021000021454887497        0000139202000350         David Nguyen            00000001 
627021000021228487456        0000160722000351         Latoya Johnson          00000001 
627021000021995701843        0000792182000352         Sharon Mccoy            00000001 
627021000021530072923        0000087902000353         Stephanie Ortiz         00000001 
627021000021330679889        0000957071000354         Misty Booth             00000001 
627021000021868780761        0000687321000355         Michael White           00000001 
627021000021273180788        0000388934000356         Sandra Choi             00000001 
627021000021207332150        0000783647000357         Amanda Vargas           00000001 
627021000021187167811        0000745404000358         Roberta Parsons         00000001 
627021000021149588475        0000598820000359         Elizabeth Campos        00000001 
627021000021813497839        0000519934000360         Elaine Hines            00000001 
627021000021999846677        0000130832000361         Ashley Howell           00000001 
627021000021480748037        0000354272000362         Mark Hill               00000001 
627021000021141583984        0000066359000363         Angela Cruz             00000001 
627021000021359020950        0000295545000364         Andrea Vasquez          00000001 
627021000021563980984        0000466509000365         Nicholas Carey          00000001 
627021000021606369090        0000714787000366         Nicole Schultz DDS      00000001 
627021000021149768826        0000738840000367         Nathan Smith            00000001 
627021000021568598826        0000261427000368         Julie George            00000001 
627021000021509227903        0000482192000369         Brandi Smith            00000001 
627021000021581081747        0000472637000370         Daniel Smith            00000001 
627021000021192727349        0000953726000371         Gary Moore              00000001 
627021000021882327565        0000077965000372         Heidi Hill              00000001 
627021000021753661961        0000148813000373         Haley Daniels           00000001 
627021000021513795229        0000606043000374         Aaron Merritt           00000001 
627021000021499656520        0000450021000375         Andrea Mason            00000001 
627021000021613436398        0000779014000376         Erin Alvarez            00000001 
627021000021115538249        0000310058000377         Gina Cunningham         00000001 
627021000021296833078        0000470003000378         Kimberly Doyle          00000001 
627021000021594264931        0000410699000379         Lori Gonzales           00000001 
627021000021776046791        0000652019000380         Pamela Clark            00000001 
627021000021862793614        0000441038000381         Bethany Nichols         00000001 
627021000021890693902        0000905074000382         Jenna Carter            00000001 
627021000021668299270        0000276512000383         Mary Morris             00000001 
627021000021803159215        0000549068000384         Albert Campos           00000001 
627021000021259868656        0000115793000385         Charles Raymond MD      00000001 
627021000021507824880        0000643161000386         Brianna Zamora          00000001 
627021000021622504182        0000989985000387         John Lara               00000001 
627021000021805736449        0000234417000388         David Shaw              00000001 
627021000021427084168        0000661233000389         Carmen Moore            00000001 
627021000021381422677        0000273909000390         Tina Bailey             00000001 
627021000021570213593        0000337795000391         Rhonda Rodriguez        00000001 
627021000021774678398        0000804914000392         Katie Harris            00000001 
627021000021264639712        0000001522000393         Allen Livingston        00000001 
627021000021133726189        0000484609000394         Rhonda Rhodes           00000001 
627021000021353658583        0000600864000395         Tina Frye               00000001 
627021000021268955434        0000083135000396         Wendy Harding           00000001 
627021000021259459999        0000917961000397         Katie Smith             00000001 
627021000021177527491        0000387221000398         George Flowers          00000001 
627021000021509967127        0000376381000399         Kimberly Edwards        00000001 
627021000021120657197        0000933865000400         Aaron Hubbard           00000001 
627021000021403789629        0000859887000401         Brian Morgan            00000001 
627021000021506546314        0000964243000402         Jessica Sanders         00000001 
627021000021967604913        0000754692000403         Jennifer Bowen          00000001 
627021000021627683932        0000958421000404         Mary Ramirez            00000001 
627021000021121899630        0000817244000405         Sarah Moyer             00000001 
627021000021612099434        0000373138000406         Jennifer Wood           00000001 
627021000021445933540        0000502221000407         Laurie Harrell          00000001 
627021000021745616795        0000120150000408         Dominique Phillips      00000001 
627021000021447409024        0000509102000409         Adam Freeman            00000001 
627021000021559098975        0000770401000410         Kelly Meyer             00000001 
627021000021638895261        0000872506000411         William Davidson        00000001 
627021000021111400860        0000341950000412         Sara Bryan              00000001 
627021000021413707207        0000621347000413         Keith Morrison          00000001 
627021000021787161423        0000397868000414         Christina Briggs        00000001 
627021000021638043713        0000929557000415         Joseph French           00000001 
627021000021344145264        0000504660000416         Bryan Rivera            00000001 
627021000021925114823        0000151376000417         Susan Robinson          00000001 
627021000021915150272        0000383511000418         Marcus Wall             00000001 
627021000021793805522        0000382724000419         Stephanie Fischer       00000001 
627021000021972418280        0000729825000420         Christopher Cervantes   00000001 
627021000021510232719        0000098160000421         Kimberly Graham         00000001 
627021000021990663039        0000539939000422         Angela Warren           00000001 
627021000021608851968        0000415922000423         Rebecca Cruz            00000001 
627021000021642219842        0000058050000424         Scott Levine            00000001 
627021000021659096484        0000841526000425         James Gallagher         00000001 
627021000021552581366        0000419372000426         Jessica Tyler           00000001 
627021000021660359633        0000820545000427         Dustin Burns            00000001 
627021000021390319442        0000387256000428         Andrew Howard           00000001 
627021000021138612323        0000592090000429         Michelle Baker          00000001 
627021000021571699733        0000760113000430         Jamie Elliott           00000001 
627021000021965116424        0000662565000431         Michael Williams        00000001 
627021000021120460358        0000979368000432         Paul Gardner            00000001 
627021000021274411444        0000691790000433         David Martin            00000001 
627021000021766957908        0000550201000434         Linda Reed              00000001 
627021000021114784112        0000298359000435         Curtis Dean             00000001 
627021000021210307539        0000838508000436         Jessica Mcneil          00000001 
627021000021360758247        0000198799000437         Jeanette Orr            00000001 
627021000021282307863        0000133244000438         Ronald West             00000001 
627021000021721273132        0000233288000439         William White           00000001 
627021000021243672594        0000244488000440         Melissa Douglas         00000001 
627021000021352146148        0000135752000441         Jack Grant              00000001 
627021000021971673395        0000058097000442         Abigail Williams        00000001 
627021000021458082505        0000211761000443         Jessica Reed            00000001 
627021000021765656631        0000375624000444         Paige Baker             00000001 
627021000021117712356        0000843562000445         James Cole              00000001 
627021000021438054495        0000925962000446         Sarah Day               00000001 
627021000021643921901        0000277525000447         Casey Davidson          00000001 
627021000021520673821        0000699606000448         Chad Hicks              00000001 
627021000021356749991        0000941479000449         Stephen Rivera          00000001 
627021000021394339106        0000087954000450         Brittany Olsen          00000001 
627021000021278658991        0000571528000451         Angel Nixon             00000001 
627021000021478181308        0000401350000452         Courtney Humphrey       00000001 
627021000021208385696        0000614135000453         Kevin Hale              00000001 
627021000021772350278        0000059490000454         Keith Foster            00000001 
627021000021103452056        0000392461000455         Sheila Oliver           00000001 
627021000021524508889        0000961802000456         Christopher Mann        00000001 
627021000021624680231        0000210192000457         Dorothy Atkins          00000001 
627021000021769848026        0000890949000458         Sabrina Clark           00000001 
627021000021798023133        0000433846000459         Catherine Parsons       00000001 
627021000021329617417        0000729295000460         Daniel Smith            00000001 
627021000021438507255        0000320707000461         Nicholas Ward           00000001 
627021000021819857742        0000073722000462         Heather Contreras       00000001 
627021000021736587281        0000177133000463         Whitney Frank           00000001 
627021000021630517507        0000391957000464         Rebecca Garcia          00000001 
627021000021358515462        0000582688000465         Monica Berry            00000001 
627021000021707668119        0000801669000466         Mark Flores             00000001 
627021000021509288262        0000679420000467         Zachary Fisher          00000001 
627021000021495539619        0000019070000468         Nathan Tate             00000001 
627021000021955838056        0000747825000469         Anthony Jordan          00000001 
627021000021763003926        0000099510000470         Melissa Fox             00000001 
627021000021950130106        0000872231000471         Richard Reed            00000001 
627021000021595498324        0000566411000472         Steven Preston          00000001 
627021000021463121784        0000760262000473         Donald Matthews         00000001 
627021000021408773771        0000266032000474         Kristen Rodriguez       00000001 
627021000021769165724        0000070127000475         Rebecca Sherman         00000001 
627021000021744827773        0000838412000476         Stephanie Wiley         00000001 
627021000021731653301        0000055091000477         Samuel Smith            00000001 
627021000021921179149        0000325948000478         Dr. Nicole Madden DDS   00000001 
627021000021533505920        0000735774000479         Samuel Fernandez        00000001 
627021000021649238859        0000192374000480         Linda Anthony           00000001 
627021000021471721361        0000876862000481         Angela Haney            00000001 
627021000021857066126        0000147770000482         Matthew Arroyo          00000001 
627021000021491093194        0000665028000483         Christopher Evans       00000001 
627021000021488062981        0000284295000484         Charles Bass            00000001 
627021000021540044814        0000103072000485         Sergio Smith            00000001 
627021000021800552504        0000609230000486         William Hale            00000001 
627021000021907950887        0000617684000487         Susan Hernandez         00000001 
627021000021133691074        0000627486000488         Janice Tate             00000001 
627021000021610028034        0000323129000489         Jonathan Hurley         00000001 
627021000021638610134        0000793249000490         Michelle Williams       00000001 
627021000021844473018        0000539077000491         Sean Carter             00000001 
627021000021103367571        0000471209000492         Breanna Evans           00000001 
627021000021326365857        0000997106000493         Dennis Wilcox           00000001 
627021000021557176143        0000300817000494         Grant Mcbride           00000001 
627021000021551324557        0000663597000495         Adrian Williams         00000001 
627021000021122813200        0000396704000496         Clayton Fitzpatrick     00000001 
627021000021741850055        0000913702000497         Dr. Jamie Stevenson     00000001 
627021000021925512442        0000558499000498         Michael Sheppard        00000001 
627021000021859237741        0000235117000499         John Robertson          00000001 
627021000021908824858        0000133172000500         Charles Clark           00000001 
627021000021905911444        0000499955000501         Diana Chaney            00000001 
627021000021364737789        0000209384000502         Tanya King              00000001 
627021000021333616376        0000301467000503         Brian Hughes            00000001 
627021000021805534920        0000444299000504         Stacy Wilson            00000001 
627021000021255096090        0000073359000505         Mr. Tyler Bowers        00000001 
627021000021977751094        0000116715000506         Marcus Schmidt          00000001 
627021000021726741983        0000048838000507         Barry Henry             00000001 
627021000021558537508        0000222455000508         Kyle Jackson            00000001 
627021000021141716319        0000731014000509         Ronald Price            00000001 
627021000021751674869        0000482110000510         Douglas King            00000001 
627021000021326173717        0000907440000511         Bonnie Hunt             00000001 
627021000021271282161        0000620997000512         Timothy Mccoy Jr.       00000001 
627021000021572745828        0000538594000513         Regina Bennett          00000001 
627021000021347559263        0000980154000514         Jasmine Flores          00000001 
627021000021363485550        0000029299000515         Jennifer Nunez          00000001 
627021000021875096830        0000621782000516         Megan Hopkins           00000001 
627021000021986774187        0000277625000517         Ashley Wright           00000001 
627021000021963872292        0000512838000518         Lauren Middleton        00000001 
627021000021360114841        0000212659000519         Maxwell Smith Jr.       00000001 
627021000021128318404        0000549473000520         Jennifer Espinoza       00000001 
627021000021906781783        0000486983000521         Gary Schneider          00000001 
627021000021111575562        0000176442000522         Sean Ford               00000001 
627021000021752431681        0000677276000523         Jacob Dean              00000001 
627021000021821325817        0000358637000524         David Carr              00000001 
627021000021507466263        0000995987000525         Daniel King             00000001 
627021000021267717202        0000125741000526         Donna Stewart           00000001 
627021000021464551653        0000517472000527         Jennifer Coleman        00000001 
627021000021914505006        0000009123000528         Margaret Harris         00000001 
627021000021479832181        0000829370000529         Wendy Davis             00000001 
627021000021548578362        0000667458000530         Pamela Kirk             00000001 
627021000021384880769        0000016029000531         Natalie Patterson       00000001 
627021000021519150686        0000428168000532         Sean Reynolds           00000001 
627021000021701427391        0000591676000533         Eddie Burton            00000001 
627021000021672772178        0000402684000534         Ricardo Johnson         00000001 
627021000021607757362        0000358981000535         Stanley Schultz         00000001 
627021000021292733465        0000783235000536         Adam Wilson             00000001 
627021000021245776981        0000597673000537         Jacob Hayes             00000001 
627021000021382673140        0000133742000538         Elizabeth Baker         00000001 
627021000021790486938        0000287526000539         Dana Rush               00000001 
627021000021769501463        0000323569000540         Peter Hamilton          00000001 
627021000021656059389        0000768962000541         Angel Williams          00000001 
627021000021386879847        0000623490000542         Kimberly Barry          00000001 
627021000021356226491        0000893799000543         Alexis Mcknight         00000001 
627021000021139929252        0000404635000544         Cody Tapia              00000001 
627021000021735710614        0000647094000545         David Reynolds          00000001 
627021000021555707913        0000054561000546         John Cardenas           00000001 
627021000021235791557        0000355191000547         George Figueroa         00000001 
627021000021368278177        0000102788000548         Teresa Barker           00000001 
627021000021904696957        0000551664000549         Christina Allen         00000001 
627021000021725685457        0000119918000550         Cody Kirk               00000001 
627021000021310925576        0000820249000551         John Villarreal         00000001 
627021000021350902742        0000027711000552         James Adams             00000001 
627021000021493456042        0000249185000553         Patrick Vasquez         00000001 
627021000021371002883        0000246327000554         Anthony Watson          00000001 
627021000021379065731        0000498067000555         Jennifer Evans          00000001 
627021000021462757400        0000405871000556         Charles Gonzales        00000001 
627021000021926059251        0000090189000557         Christopher Long        00000001 
627021000021742337806        0000705845000558         Daniel Ruiz             00000001 
627021000021304350657        0000983500000559         Michael Tucker          00000001 
627021000021427482684        0000465701000560         Gloria Preston          00000001 
627021000021380298859        0000449067000561         Lauren Hobbs            00000001 
627021000021646131567        0000995421000562         Charles Hunter          00000001 
627021000021376709495        0000561910000563         Dr. Dawn George         00000001 
627021000021878615428        0000429663000564         Justin Harper           00000001 
627021000021932091996        0000111132000565         Peter Gregory           00000001 
627021000021305421517        0000051927000566         Christine Williams      00000001 
627021000021977910137        0000344276000567         Jeffrey Quinn           00000001 
627021000021646529441        0000035373000568         Christopher Roberts     00000001 
627021000021173567063        0000462439000569         Jenny Wallace           00000001 
627021000021132716802        0000635218000570         Lisa White              00000001 
627021000021973321145        0000767885000571         Richard Rios            00000001 
627021000021950067426        0000695878000572         Sharon Miller           00000001 
627021000021897176379        0000408496000573         Edward Holloway         00000001 
627021000021385910521        0000571232000574         Jose Bennett            00000001 
627021000021262543012        0000010331000575         Julian Delacruz         00000001 
627021000021953150377        0000512352000576         John Wilson             00000001 
627021000021780576342        0000731154000577         Amber Myers             00000001 
627021000021226214503        0000510968000578         David Chen              00000001 
627021000021971335762        0000033163000579         Kyle Harris DVM         00000001 
627021000021111553554        0000986010000580         Kathryn Gill            00000001 
627021000021699216901        0000886968000581         Joshua Vasquez          00000001 
627021000021504577935        0000878439000582         Tony Hurst              00000001 
627021000021678488655        0000988101000583         Hailey Dougherty        00000001 
627021000021659318869        0000809703000584         Alyssa Montgomery       00000001 
627021000021379082194        0000916636000585         Zachary Butler          00000001 
627021000021881300495        0000438913000586         Shelly Nguyen           00000001 
627021000021219216781        0000055886000587         Jeffrey Aguilar         00000001 
627021000021221865254        0000991126000588         Victoria Harris         00000001 
627021000021304837467        0000724908000589         Lisa White              00000001 
627021000021526252033        0000853215000590         Vernon Frey             00000001 
627021000021962359751        0000220781000591         Steve Nunez             00000001 
627021000021195758862        0000055916000592         Barbara Patterson       00000001 
627021000021316121570        0000209156000593         Rachel Phelps           00000001 
627021000021223783626        0000249528000594         Kevin Diaz              00000001 
627021000021502875819        0000753157000595         Raymond Kelly           00000001 
627021000021373375311        0000676373000596         Brian Mcconnell         00000001 
627021000021600814921        0000685869000597         Lisa Mahoney            00000001 
627021000021354152462        0000016090000598         Samuel Wilson           00000001 
627021000021922560524        0000965208000599         Lisa Garcia             00000001 
627021000021241810853        0000544088000600         Brian Thomas            00000001 
627021000021827466816        0000672192000601         Mrs. Brittany Steele    00000001 
627021000021816682457        0000178122000602         Lisa Houston            00000001 
627021000021892777297        0000804897000603         Melissa Bailey          00000001 
627021000021928727111        0000501564000604         Shannon Villarreal      00000001 
627021000021967510987        0000343852000605         Pamela Olsen            00000001 
627021000021333985693        0000638830000606         Courtney Davis          00000001 
627021000021399298223        0000419857000607         Edward Wheeler          00000001 
627021000021680848224        0000506413000608         Michael Murillo         00000001 
627021000021751420638        0000465343000609         Kelsey Sanchez          00000001 
627021000021743670473        0000499818000610         Troy Thomas             00000001 
627021000021681684745        0000325512000611         Taylor Barton           00000001 
627021000021582657321        0000606398000612         Joshua Mclaughlin       00000001 
627021000021630938584        0000176726000613         Jeremy Klein            00000001 
627021000021650618594        0000007453000614         Crystal Manning         00000001 
627021000021325971605        0000838453000615         Lori Miller             00000001 
627021000021938186740        0000327544000616         Amanda Parker           00000001 
627021000021922558703        0000351644000617         Andrea Hall             00000001 
627021000021809195509        0000626037000618         Charles Lewis           00000001 
627021000021868053085        0000918259000619         Sharon Sanchez          00000001 
627021000021356005859        0000355591000620         Stephanie Boyd          00000001 
627021000021852237142        0000349177000621         Kelly Ross              00000001 
627021000021573508572        0000267925000622         Sean Adams              00000001 
627021000021951109499        0000870071000623         Michael Allen           00000001 
627021000021146763997        0000234996000624         Lee Boyle               00000001 
627021000021735780334        0000421655000625         Teresa Reynolds         00000001 
627021000021145687226        0000748390000626         Brent Moore             00000001 
627021000021478139748        0000250642000627         Carl Price              00000001 
627021000021750186521        0000625495000628         Alyssa Hogan            00000001 
627021000021863580055        0000723569000629         Virginia Gomez          00000001 
627021000021787661568        0000582650000630         Kevin Burgess           00000001 
627021000021530387968        0000060902000631         Ryan Thompson           00000001 
627021000021521139290        0000682381000632         Courtney Duncan         00000001 
627021000021930614000        0000807882000633         Kim Patel               00000001 
627021000021821258407        0000303716000634         Courtney Morales        00000001 
627021000021449545111        0000139711000635         Joe Bryan DDS           00000001 
627021000021159063744        0000260903000636         Brenda Martinez         00000001 
627021000021634660316        0000194228000637         Chelsea Hicks           00000001 
627021000021523153998        0000098295000638         Michele Reyes           00000001 
627021000021536607981        0000002579000639         Ashley Spencer          00000001 
627021000021228283377        0000331572000640         Charles Gross           00000001 
627021000021476064499        0000707931000641         Christine Meyers        00000001 
627021000021127366554        0000055838000642         Austin Holmes           00000001 
627021000021578859053        0000291339000643         Melissa Wilson          00000001 
627021000021928638299        0000344724000644         Kelsey Faulkner         00000001 
627021000021881130740        0000286223000645         Debra Mathis            00000001 
627021000021535232688        0000284826000646         Gloria Moyer            00000001 
627021000021647796343        0000519138000647         Michele Smith           00000001 
627021000021847608606        0000055432000648         Jennifer Lee            00000001 
627021000021989813117        0000484202000649         Deborah Garrett         00000001 
627021000021355111497        0000830507000650         Yvette Jones            00000001 
627021000021249106457        0000086992000651         Christopher Harrell     00000001 
627021000021850979517        0000173785000652         Elizabeth Thompson      00000001 
627021000021173328559        0000342840000653         Tiffany Hawkins         00000001 
627021000021780856213        0000071816000654         Brian Allen             00000001 
627021000021282085446        0000310090000655         John Martinez           00000001 
627021000021385552322        0000873269000656         Darrell Brown           00000001 
627021000021148229177        0000360601000657         Destiny Graves          00000001 
627021000021156188030        0000659850000658         Ashley Santos           00000001 
627021000021520183277        0000056909000659         Joshua Cervantes        00000001 
627021000021244009726        0000956929000660         Daniel Thomas           00000001 
627021000021515899127        0000660831000661         Glenn Kelly             00000001 
627021000021549948831        0000334400000662         Caitlyn Kelly           00000001 
627021000021276175178        0000607888000663         Emma Mendoza            00000001 
627021000021528593864        0000739922000664         Adam Dennis Jr.         00000001 
627021000021409958812        0000157141000665         Cynthia Scott           00000001 
627021000021702225407        0000251263000666         James Hoffman           00000001 
627021000021739012170        0000480407000667         Michael Burton          00000001 
627021000021413513610        0000737092000668         Christopher Haney       00000001 
627021000021923565928        0000561562000669         John Lopez              00000001 
627021000021574747328        0000603516000670         Donald Jenkins          00000001 
627021000021276079480        0000229904000671         Nicole Randall          00000001 
627021000021505234641        0000671270000672         Evan Ali                00000001 
627021000021645860098        0000473876000673         Devin Flynn             00000001 
627021000021760963681        0000969282000674         Mary Sanchez            00000001 
627021000021913831947        0000475210000675         Curtis Hogan            00000001 
627021000021675970840        0000577830000676         Johnny Carrillo         00000001 
627021000021784243385        0000721954000677         Amy Cantrell            00000001 
627021000021893879896        0000932732000678         David Pierce            00000001 
627021000021505503278        0000460920000679         Gary Harris             00000001 
627021000021339443219        0000480592000680         Alexis Mitchell         00000001 
627021000021974580794        0000339422000681         Scott Davis             00000001 
627021000021889795822        0000291577000682         Amber Garcia            00000001 
627021000021453839156        0000669903000683         Scott Martin            00000001 
627021000021300843233        0000714296000684         Sherry Mitchell         00000001 
627021000021779724538        0000397154000685         Oscar Osborne           00000001 
627021000021449991474        0000736446000686         Melissa Scott           00000001 
627021000021285342912        0000993059000687         Daniel White            00000001 
627021000021584017006        0000069157000688         Dylan Evans             00000001 
627021000021782414366        0000111625000689         Mary Boyle              00000001 
627021000021622395607        0000709605000690         Jeffrey Martin          00000001 
627021000021528857822        0000752266000691         James Wong              00000001 
627021000021809371884        0000744222000692         Joseph Williamson       00000001 
627021000021854019154        0000646931000693         Michael Mcdonald        00000001 
627021000021486470842        0000942783000694         Michael Cole            00000001 
627021000021441358782        0000626568000695         Denise Pitts            00000001 
627021000021441829125        0000769273000696         Thomas Baxter           00000001 
627021000021837922373        0000212183000697         Lauren Lee              00000001 
627021000021351440924        0000593968000698         Matthew Robinson        00000001 
627021000021234249479        0000626317000699         Anthony Macias          00000001 
627021000021122140140        0000893404000700         Patricia Alvarez        00000001 
627021000021738301128        0000745910000701         Patricia Collins        00000001 
627021000021262264799        0000871237000702         Nicole Pollard          00000001 
627021000021580061525        0000737979000703         Steven Ryan             00000001 
627021000021785981056        0000844051000704         Darrell Carter          00000001 
627021000021430080465        0000660373000705         Amy Quinn               00000001 
627021000021144948715        0000614061000706         Sarah Webb              00000001 
627021000021424028838        0000898876000707         Amy Ware                00000001 
627021000021930325414        0000682079000708         Daniel Jimenez          00000001 
627021000021828140139        0000132814000709         Caroline Ewing          00000001 
627021000021764451205        0000746573000710         Mary Powell             00000001 
627021000021485894201        0000354157000711         Louis Wise              00000001 
627021000021956302957        0000188028000712         Pamela Savage           00000001 
627021000021860733806        0000518354000713         Jack Frank PhD          00000001 
627021000021272768997        0000954686000714         Timothy Lewis           00000001 
627021000021270043649        0000402110000715         Alec Hunt               00000001 
627021000021961407474        0000580328000716         Javier Wilson           00000001 
627021000021262694013        0000947726000717         Dr. Phillip Harrington  00000001 
627021000021151895230        0000079737000718         Darrell Perkins         00000001 
627021000021637247246        0000629394000719         Sandra Klein            00000001 
627021000021787388483        0000818489000720         Laura Payne             00000001 
627021000021724261718        0000495700000721         Michael Fischer         00000001 
627021000021125123035        0000192964000722         Wendy Rice              00000001 
627021000021653085566        0000443013000723         Joseph Henderson        00000001 
627021000021587708264        0000415539000724         Brian Riddle            00000001 
627021000021740722822        0000779952000725         Cody Warren             00000001 
627021000021303886845        0000271414000726         Henry Porter            00000001 
627021000021709162535        0000414099000727         Ashley Terry            00000001 
627021000021176219043        0000411524000728         David Young             00000001 
627021000021559765033        0000959869000729         Bryan Rodriguez         00000001 
627021000021306361698        0000429577000730         Kim Mccoy               00000001 
627021000021475009908        0000271912000731         Abigail York            00000001 
627021000021693832347        0000881545000732         Matthew Fox             00000001 
627021000021371655022        0000196729000733         Joshua Berry            00000001 
627021000021301046570        0000055445000734         Scott Meyer             00000001 
627021000021827915116        0000368905000735         Cody Johnson            00000001 
627021000021332677011        0000970633000736         Gabriel Moran           00000001 
627021000021809605115        0000692066000737         Jennifer Gross          00000001 
627021000021650360064        0000232539000738         Elizabeth Jackson       00000001 
627021000021538729083        0000880696000739         Annette Simmons         00000001 
627021000021279584641        0000935696000740         Thomas Espinoza         00000001 
627021000021255583667        0000379784000741         Daniel Spencer          00000001 
627021000021959239437        0000442352000742         Andrew Martinez         00000001 
627021000021877694505        0000804689000743         Edward Simmons          00000001 
627021000021556862426        0000548774000744         Ann Black               00000001 
627021000021841301161        0000255712000745         Brittney Moore          00000001 
627021000021643814061        0000097550000746         Steven Beltran Jr.      00000001 
627021000021275320416        0000922466000747         Kyle Rodriguez          00000001 
627021000021848523722        0000903125000748         John Jackson            00000001 
627021000021592837148        0000933933000749         Travis Johnson          00000001 
627021000021284022522        0000612388000750         Dennis Roach            00000001 
627021000021605783486        0000019272000751         Todd Nolan              00000001 
627021000021112518488        0000485407000752         Martha Phillips         00000001 
627021000021220496279        0000145145000753         Michael Hughes          00000001 
627021000021193419164        0000656077000754         Robert Goodman          00000001 
627021000021757644495        0000903657000755         Amanda Carter           00000001 
627021000021352623995        0000310866000756         Kathryn Thompson        00000001 
627021000021484578838        0000269113000757         Michael Baker           00000001 
627021000021457507061        0000841321000758         Jared Buchanan          00000001 
627021000021951440932        0000682796000759         Derrick Walker          00000001 
627021000021876440159        0000605275000760         Kimberly Marks          00000001 
627021000021780212254        0000590921000761         Michael Adams           00000001 
627021000021933556332        0000273968000762         Gary Jackson            00000001 
627021000021331927554        0000981858000763         Henry Jimenez           00000001 
627021000021361710599        0000706493000764         James Mcbride           00000001 
627021000021336501179        0000214859000765         Tammy Ware              00000001 
627021000021397357981        0000312459000766         Debbie Fritz            00000001 
627021000021906594341        0000618756000767         Susan Jackson           00000001 
627021000021189610246        0000169245000768         Kenneth Russell         00000001 
627021000021743481127        0000420137000769         Corey Wilson            00000001 
627021000021344572314        0000685567000770         Deborah Jones           00000001 
627021000021135641134        0000005798000771         Adam Thompson           00000001 
627021000021968277279        0000764863000772         Edward Moore            00000001 
627021000021942638331        0000906170000773         Andrew Carr             00000001 
627021000021553920668        0000354171000774         Daniel Horn             00000001 
627021000021604643452        0000655662000775         Savannah Juarez         00000001 
627021000021523865997        0000299490000776         Sheila Cochran          00000001 
627021000021442506944        0000702738000777         Andrew Jones            00000001 
627021000021482525199        0000287738000778         Jessica Johnson         00000001 
627021000021785608158        0000974886000779         Ronald Olsen            00000001 
627021000021842341478        0000195627000780         Lori Howard             00000001 
627021000021430426770        0000618578000781         Jacob Martinez          00000001 
627021000021231472439        0000928721000782         Frank Wallace           00000001 
627021000021806867178        0000612219000783         Lori Lester             00000001 
627021000021468409773        0000567113000784         Nicole Anderson         00000001 
627021000021213551820        0000613163000785         Eric Cooper             00000001 
627021000021183740877        0000642487000786         Steven Jones            00000001 
627021000021585226340        0000487331000787         Sandra Brown            00000001 
627021000021129702965        0000995474000788         Eric Pearson            00000001 
627021000021450282492        0000734089000789         Erin Brown              00000001 
627021000021510174270        0000648067000790         Paula Rivera            00000001 
627021000021136808541        0000171513000791         Allison Thompson        00000001 
627021000021759226175        0000212630000792         Steven Gibbs            00000001 
627021000021723353278        0000354211000793         Hannah Hall             00000001 
627021000021181071794        0000332094000794         James Moore             00000001 
627021000021442119337        0000132855000795         Marilyn Novak           00000001 
627021000021305684959        0000796922000796         Cheryl Bernard          00000001 
627021000021354607310        0000775089000797         Luis Dunn               00000001 
627021000021981102964        0000823373000798         Brent Murphy            00000001 
627021000021422262090        0000353186000799         James Wood              00000001 
627021000021151238749        0000761683000800         Marisa Novak            00000001 
627021000021373643392        0000915419000801         Robert Porter           00000001 
627021000021331162103        0000180720000802         Charles Chavez          00000001 
627021000021430961136        0000298050000803         Joseph Craig            00000001 
627021000021396905323        0000508309000804         Teresa Sawyer           00000001 
627021000021968078583        0000930829000805         Megan Davis             00000001 
627021000021468518811        0000629944000806         Joseph Warner           00000001 
627021000021820754575        0000748395000807         Michele Williams        00000001 
627021000021854776817        0000273341000808         Gregory Sawyer          00000001 
627021000021906091247        0000528498000809         Dan Davis               00000001 
627021000021385719226        0000247692000810         Robert Baker            00000001 
627021000021490017778        0000880721000811         Bryan Torres            00000001 
627021000021397572411        0000159446000812         Bradley Horton          00000001 
627021000021678789967        0000462977000813         Deborah Briggs          00000001 
627021000021437797195        0000550530000814         Thomas Brown            00000001 
627021000021798264840        0000724819000815         Mary White              00000001 
627021000021631490207        0000810246000816         Matthew Ruiz            00000001 
627021000021706019008        0000305882000817         Julie Barber            00000001 
627021000021450844930        0000951134000818         James Williams          00000001 
627021000021812884805        0000601148000819         Ricky Moore             00000001 
627021000021121606663        0000580458000820         Christopher Jones       00000001 
627021000021767275821        0000027139000821         Manuel Bennett          00000001 
627021000021948122086        0000737251000822         Daniel Bradshaw         00000001 
627021000021286428929        0000508783000823         Alexander Baker         00000001 
627021000021907773180        0000905860000824         Heather Cortez          00000001 
627021000021313933090        0000846056000825         Sandra Dean             00000001 
627021000021683562566        0000249154000826         Kenneth Lamb            00000001 
627021000021822900528        0000617037000827         Christie Cruz           00000001 
627021000021582863795        0000735977000828         Linda Bean              00000001 
627021000021993267829        0000738632000829         Brett Smith             00000001 
627021000021325066206        0000707275000830         Brenda Rivas            00000001 
627021000021720485746        0000191419000831         Michael Ford            00000001 
627021000021408460167        0000528944000832         David Clark             00000001 
627021000021332818618        0000951910000833         Eduardo Green           00000001 
627021000021512356809        0000584644000834         Kirk Farmer             00000001 
627021000021698453923        0000514833000835         Christina Mcdonald      00000001 
627021000021977305314        0000997993000836         Anne Green              00000001 
627021000021174999648        0000644293000837         Sarah Martin            00000001 
627021000021693414097        0000480792000838         Tiffany Joyce           00000001 
627021000021574184119        0000743143000839         Alexis Phillips         00000001 
627021000021257296464        0000774988000840         David Anderson          00000001 
627021000021741264010        0000019848000841         Tara Morales            00000001 
627021000021312239994        0000627694000842         Sherry Phillips         00000001 
627021000021998667570        0000344823000843         Eric Hays               00000001 
627021000021236603351        0000297801000844         Sabrina Hunt            00000001 
627021000021507995527        0000003177000845         Albert Garcia           00000001 
627021000021869337752        0000636981000846         William Harris          00000001 
627021000021759162664        0000229098000847         Yolanda Eaton           00000001 
627021000021973627231        0000942999000848         Laura Hubbard           00000001 
627021000021285171605        0000238679000849         Philip Ramirez          00000001 
627021000021217247459        0000380694000850         Jean Guzman             00000001 
627021000021316918787        0000620767000851         Jonathan Bailey         00000001 
627021000021492459723        0000206819000852         Mark Morrison           00000001 
627021000021534391481        0000830221000853         Holly Cox               00000001 
627021000021184040285        0000551176000854         Timothy Bell            00000001 
627021000021242162158        0000337428000855         Teresa Gonzalez         00000001 
627021000021333731576        0000794044000856         Tracy Green             00000001 
627021000021504707674        0000892169000857         Kristina Prince MD      00000001 
627021000021809128466        0000825619000858         Ethan Thomas            00000001 
627021000021968968949        0000693829000859         Theodore Williams       00000001 
627021000021394325536        0000881765000860         Christine Contreras     00000001 
627021000021321146520        0000513233000861         Mr. Russell Cabrera MD  00000001 
627021000021326039634        0000646650000862         Kenneth Benitez         00000001 
627021000021314118797        0000076975000863         Troy Smith              00000001 
627021000021234077928        0000084435000864         Penny Moon              00000001 
627021000021981689354        0000501651000865         Jonathan Crawford       00000001 
627021000021320940251        0000091305000866         Mr. Stuart Leonard      00000001 
627021000021473391199        0000231490000867         Melissa Johnson         00000001 
627021000021144556985        0000803361000868         Ronald Jones            00000001 
627021000021702588147        0000305048000869         Rachel Frost            00000001 
627021000021185011357        0000339148000870         Andrew Barnes           00000001 
627021000021875719107        0000849676000871         Cindy Thomas            00000001 
627021000021891168219        0000990632000872         Sarah Hanson            00000001 
627021000021261967034        0000359591000873         Rick Fisher             00000001 
627021000021855485970        0000461838000874         Tammie Wilson           00000001 
627021000021201732148        0000673719000875         Amy Jones               00000001 
627021000021244694576        0000621357000876         Brian Tran              00000001 
627021000021596862509        0000313788000877         Bianca Williams         00000001 
627021000021608715114        0000080613000878         Isabel Tucker           00000001 
627021000021299541636        0000107508000879         Danielle Hubbard        00000001 
627021000021610374772        0000690010000880         Mr. Brian Cole II       00000001 
627021000021815438251        0000863201000881         Ian Hill                00000001 
627021000021742028919        0000382091000882         Gerald Schaefer         00000001 
627021000021151579867        0000673901000883         Dominique Peck DDS      00000001 
627021000021148234115        0000618819000884         Chelsea Meza            00000001 
627021000021939947123        0000839928000885         Lindsey Valenzuela      00000001 
627021000021660805175        0000455622000886         Alexis Osborne          00000001 
627021000021150241346        0000399805000887         Debbie Oconnor          00000001 
627021000021326911033        0000568861000888         Dana Smith              00000001 
627021000021859601512        0000588909000889         Philip Ramirez          00000001 
627021000021119147335        0000502597000890         Billy Douglas           00000001 
627021000021742019569        0000338576000891         Jessica Christian       00000001 
627021000021602280048        0000104294000892         Mark Wang               00000001 
627021000021232094245        0000856571000893         Jose Hansen             00000001 
627021000021854041307        0000633497000894         Brittney Anderson       00000001 
627021000021832404443        0000548706000895         Valerie Thompson        00000001 
627021000021212771603        0000374893000896         Joseph Smith            00000001 
627021000021143265971        0000236916000897         Kelly Hopkins           00000001 
627021000021782587909        0000375331000898         Joseph Gonzalez         00000001 
627021000021303546334        0000366193000899         Wendy Garcia            00000001 
627021000021798066582        0000200293000900         Wanda Taylor            00000001 
627021000021279372375        0000402745000901         Beth Miller             00000001 
627021000021902059184        0000982956000902         Judy Newman             00000001 
627021000021420402175        0000001995000903         Tracy Taylor            00000001 
627021000021482000345        0000636586000904         Charles Mendez          00000001 
627021000021836164458        0000336104000905         Paul Smith              00000001 
627021000021565021030        0000422453000906         Allen Day               00000001 
627021000021980623513        0000045259000907         Dana Reynolds           00000001 
627021000021481296193        0000009205000908         Kim Khan                00000001 
627021000021741630843        0000555929000909         Michael Curtis          00000001 
627021000021289910439        0000921039000910         Matthew Heath           00000001 
627021000021355663249        0000201177000911         Alicia Hobbs            00000001 
627021000021912062647        0000974431000912         Tonya Rodriguez         00000001 
627021000021960935119        0000994783000913         Louis Campbell          00000001 
627021000021320162142        0000014693000914         Dr. Emily Russo         00000001 
627021000021328926355        0000850127000915         April King              00000001 
627021000021828905124        0000925454000916         Tammy Williams          00000001 
627021000021801035315        0000860319000917         Tracie Preston          00000001 
627021000021995064934        0000464225000918         Randall Padilla         00000001 
627021000021932568769        0000591295000919         Maria Gross             00000001 
627021000021736962345        0000645409000920         Caroline Clay           00000001 
627021000021518447663        0000522068000921         Sandra Rodriguez        00000001 
627021000021891466080        0000466810000922         Mr. Thomas Parker       00000001 
627021000021663745942        0000844217000923         David Larson            00000001 
627021000021584471535        0000682942000924         Joshua White            00000001 
627021000021267814395        0000027495000925         Heather Gardner         00000001 
627021000021191137576        0000687828000926         Kenneth Lee             00000001 
627021000021248975167        0000699898000927         Alyssa Stone            00000001 
627021000021103096591        0000718503000928         Christopher Watts       00000001 
627021000021711189244        0000805174000929         Alexis Foster           00000001 
627021000021913544580        0000476079000930         Mr. Spencer Cooper      00000001 
627021000021277210644        0000919286000931         Susan Schaefer          00000001 
627021000021104986283        0000617702000932         Bridget Wright          00000001 
627021000021279056146        0000586636000933         Lisa Aguilar            00000001 
627021000021596321258        0000701769000934         Antonio Dennis          00000001 
627021000021270140798        0000283859000935         Oscar Garza             00000001 
627021000021219729392        0000887546000936         John Porter             00000001 
627021000021793960923        0000716033000937         Frederick Martin        00000001 
627021000021171453632        0000555155000938         Carolyn Hill            00000001 
627021000021715912252        0000303828000939         Taylor Wise             00000001 
627021000021313661777        0000039963000940         Kelsey Wang             00000001 
627021000021427662778        0000269031000941         Tami Frye               00000001 
627021000021899894122        0000218057000942         Jaime Marks             00000001 
627021000021734840244        0000836523000943         Russell Garcia          00000001 
627021000021389724744        0000939645000944         Elizabeth Reid          00000001 
627021000021981054245        0000166409000945         Robert Evans            00000001 
627021000021570627764        0000181524000946         Kayla Pitts             00000001 
627021000021929461402        0000012667000947         Bernard Buchanan        00000001 
627021000021708906056        0000825849000948         Carly Malone            00000001 
627021000021254926571        0000563955000949         David Fitzgerald DDS    00000001 
627021000021318905557        0000447897000950         Alan Foley              00000001 
627021000021438261513        0000175598000951         Gregory Mata            00000001 
627021000021567543674        0000165711000952         Tamara Garcia           00000001 
627021000021243251402        0000700805000953         Michelle Thompson       00000001 
627021000021593032595        0000230792000954         Eric Phillips           00000001 
627021000021982133806        0000461991000955         Rebecca Garcia          00000001 
627021000021652405526        0000510478000956         John Brewer             00000001 
627021000021537973361        0000943475000957         Bryan Pittman           00000001 
627021000021948857534        0000571501000958         Shane Thompson Jr.      00000001 
627021000021860248626        0000946604000959         Briana Moore            00000001 
627021000021580960205        0000622131000960         Diane Patrick           00000001 
627021000021300108687        0000492114000961         Monica Garcia           00000001 
627021000021448756419        0000324038000962         Ryan Leonard            00000001 
627021000021518400592        0000234067000963         Rebecca Snyder          00000001 
627021000021942338991        0000517993000964         Cody Tucker             00000001 
627021000021413939982        0000220809000965         Lauren Ruiz             00000001 
627021000021601989439        0000703320000966         Mark Moss               00000001 
627021000021755399925        0000952912000967         Todd Jacobson           00000001 
627021000021298311547        0000017901000968         Emily Harmon            00000001 
627021000021780930817        0000619084000969         Stacy Hays              00000001 
627021000021971973199        0000463664000970         Daniel Alvarado         00000001 
627021000021345821104        0000414092000971         Rachel Palmer           00000001 
627021000021178176884        0000870289000972         Madison Smith           00000001 
627021000021893787084        0000222513000973         Kenneth Roman           00000001 
627021000021327023917        0000219231000974         Adam Jordan             00000001 
627021000021438701582        0000064654000975         Jessica Mullins         00000001 
627021000021377088804        0000690283000976         Sharon Cook             00000001 
627021000021737445906        0000477543000977         Joshua Bailey           00000001 
627021000021644275329        0000667866000978         Hunter Mora             00000001 
627021000021405531693        0000897757000979         John Harrison MD        00000001 
627021000021529714285        0000491462000980         Gregory Davenport       00000001 
627021000021640073115        0000306137000981         Michael Vang            00000001 
627021000021208769848        0000396642000982         Stacey Aguirre          00000001 
627021000021443209803        0000369334000983         Robert Baker            00000001 
627021000021642354357        0000838659000984         Christopher Aguilar     00000001 
627021000021231391563        0000429802000985         Jimmy Murphy            00000001 
627021000021500266307        0000939521000986         Jacob Oconnor           00000001 
627021000021754178347        0000358954000987         Sara Dunlap             00000001 
627021000021777982204        0000069052000988         Aaron Jensen            00000001 
627021000021737289662        0000149400000989         Richard Hebert          00000001 
627021000021690236419        0000845908000990         Michael Good            00000001 
627021000021566963151        0000249182000991         Sierra Williams         00000001 
627021000021197201822        0000275949000992         Amanda Gomez            00000001 
627021000021582362792        0000218353000993         Susan Perry             00000001 
627021000021601386977        0000335721000994         Tara Briggs             00000001 
627021000021812218806        0000489645000995         Kristen Davis           00000001 
627021000021111519593        0000937803000996         Mary Brown              00000001 
627021000021187478395        0000438363000997         Dr. Renee Lane MD       00000001 
627021000021433558331        0000954320000998         Lisa Stephenson         00000001 
627021000021251800885        0000219671000999         Lori Lam                00000001 
627021000021674681095        0000475660001000         Justin Dixon            00000001 
82000010000506218678                    1234567899876543210000001
90000000010010000000001000000000000000000506218678                                       
